:100000000C945B000C9483000C9483000C9483008C
:100010000C9483000C9483000C9483000C94830054
:100020000C9483000C9483000C9483000C94830044
:100030000C9483000C9483000C9483000C94830034
:100040000C94A4020C9483000C94B0040C948300D0
:100050000C9483000C9483000C9483000C94830014
:100060000C9483000C948300000024272A000025B0
:10007000282B000023262904040404040404040299
:100080000202020202030303030303010204081035
:100090002040800102040810200102040810200002
:1000A0000000070002010000030406000000000039
:1000B00000000000FC0011241FBECFEFD4E0DEBF23
:1000C000CDBF11E0A0E0B1E0E2EBFAE002C00590A4
:1000D0000D92AA32B107D9F711E0AAE2B1E001C04E
:1000E0001D92A83BB107E1F710E0C6EBD0E004C0D9
:1000F0002297FE010E945305C43BD107C9F70E9415
:10010000F5000C9457050C9400000F931F93CF93A8
:10011000DF9360E071E08AE291E00E94250162E7EE
:1001200076E08AE291E00E947402C0E0D0E061E0F3
:1001300088E00E949F0382E090E00E94390360E023
:1001400088E00E949F0300E0802F10E0912F0E9422
:10015000390361E088E00E949F0382E090E00E9402
:10016000390360E088E00E949F03C8010E943903C0
:10017000219687E0C03DD807D1F6DF91CF911F913E
:100180000F9108950F931F930AE211E040E855E2A2
:1001900060E070E0C8010E94100168E071E0C801F1
:1001A0000E94640161E088E00E94810361E089E0CF
:1001B0000E94810361E089E00E949F0360E088E083
:1001C0000E949F0361E088E00E94810361E089E072
:1001D0000E94810361E089E00E949F0360E088E063
:1001E0000E949F031F910F9108950E9447030E9450
:1001F000C2000E948500FDCF88E291E090932B0120
:1002000080932A010895862F0E946F0408950E940A
:10021000A70408950E94880408950E947704089511
:10022000CB01BA010E9436040895DC01ED91FC91E6
:100230000190F081E02D09950895DC01ED91FC918C
:100240000190F081E02D099508950F931F93CF93AE
:10025000DF938C01EB0109C02196D801ED91FC914F
:100260000190F081E02DC801099568816623A1F70E
:10027000DF91CF911F910F9108950F931F938C01E0
:10028000DC01ED91FC910190F081E02D6DE009958C
:10029000D801ED91FC910190F081E02D6AE0C80158
:1002A00009951F910F9108950F931F938C01DC0105
:1002B000ED91FC910190F081E02D0995C8010E941B
:1002C0003D011F910F9108950F931F938C010E9480
:1002D0002501C8010E943D011F910F9108950F93C0
:1002E0001F938C01DC01ED91FC910190F081E02DD8
:1002F0000995C8010E943D011F910F9108952F9209
:100300003F924F925F926F927F928F929F92AF92A5
:10031000BF92CF92DF92EF92FF920F931F93DF93E2
:10032000CF93CDB7DEB7A0970FB6F894DEBF0FBE60
:10033000CDBF1C016A017B014115510561057105A5
:1003400049F4DC01ED91FC910190F081E02D60E336
:10035000099554C0882499245401422E55246624BA
:10036000772401E010E00C0F1D1F080D191DC701B7
:10037000B601A30192010E940005F8016083089470
:10038000811C911CA11CB11CC701B601A3019201E3
:100390000E940005C901DA016C017D01C114D1047C
:1003A000E104F104F1F681E0E82EF12CEC0EFD1EE3
:1003B000E80CF91C3E010894611C711CD501C401B4
:1003C0000197A109B1096C01C818D90814C0F60138
:1003D000EE0DFF1D60816A3010F4605D01C0695C44
:1003E000D101ED91FC910190F081E02DC1010995C1
:1003F0000894E108F1086E147F0449F7A0960FB63F
:10040000F894DEBF0FBECDBFCF91DF911F910F914A
:10041000FF90EF90DF90CF90BF90AF909F908F9024
:100420007F906F905F904F903F902F9008952AE0BB
:100430000E947F0108950F931F938C010E94170261
:10044000C8010E943D011F910F910895AB0160E02A
:1004500070E00E94170208950F931F938C01AB0167
:1004600060E070E00E941702C8010E943D011F91E8
:100470000F910895EF92FF920F931F93CF93DF9305
:10048000EC017A018B0177FF0FC0E881F9810190BF
:10049000F081E02D6DE2099510950095F094E094BF
:1004A000E11CF11C011D111D2AE0B801A701CE01BC
:1004B0000E947F01DF91CF911F910F91FF90EF90EC
:1004C00008950F931F938C010E943A02C8010E9465
:1004D0003D011F910F910895AB01662757FD60956F
:1004E000762F0E943A0208950F931F938C01AB015F
:1004F000662757FD6095762F0E943A02C8010E9438
:100500003D011F910F910895DC012115310541F442
:10051000ED91FC910190F081E02D642F09950895F3
:100520002A30310519F40E943A0208950E947F0191
:1005300008950F931F938C010E948402C8010E94AA
:100540003D011F910F9108951F920F920FB60F92C8
:1005500011242F938F939F93AF93BF9380912C017E
:1005600090912D01A0912E01B0912F018050904CBF
:10057000AF4FBF4F80932C0190932D01A0932E017C
:10058000B0932F0127C080912C0190912D01A09153
:100590002E01B0912F0180589E43A040B04080931F
:1005A0002C0190932D01A0932E01B0932F018091E7
:1005B000300190913101A0913201B0913301019647
:1005C000A11DB11D8093300190933101A0933201A0
:1005D000B093330180912C0190912D01A0912E01B7
:1005E000B0912F0181589E43A040B04060F6BF916A
:1005F000AF919F918F912F910F900FBE0F901F90F1
:1006000018958FB7F89420913001309131014091C5
:100610003201509133018FBFB901CA010895EF92A1
:10062000FF920F931F937B018C018FB7F894409139
:1006300030015091310160913201709133018FBFCF
:100640002FB7F8948091300190913101A09132013F
:10065000B09133012FBF841B950BA60BB70B8E15E2
:100660009F05A007B10760F31F910F91FF90EF90D6
:100670000895019759F0FC01EE0FFF1FEE0FFF1FC9
:1006800032978FB7F8943197F1F78FBF0895789428
:1006900084B5826084BD84B5816084BD85B5826087
:1006A00085BD85B5816085BDEEE6F0E08081816025
:1006B0008083E1E8F0E080818260808380818160D6
:1006C0008083E0E8F0E0808181608083E1EBF0E00E
:1006D000808184608083E0EBF0E0808181608083B2
:1006E000EAE7F0E08081846080838081826080839B
:1006F0008081816080838081806880831092C100C6
:100700000895282F30E0C90185579F4FFC0194912F
:1007100029583F4FF9018491882381F0E82FF0E0B8
:10072000E859FF4FE491F0E0662329F48081909529
:100730008923808308958081892B80830895482FA1
:1007400050E0CA0181569F4FFC012491CA01855790
:100750009F4FFC01949149585F4FFA013491332324
:10076000C1F1222331F1233021F4809180008F7771
:1007700005C0243031F4809180008F7D809380000B
:1007800018C0213019F484B58F7704C0223021F4C9
:1007900084B58F7D84BD0DC0263021F48091B000DA
:1007A0008F7705C0273029F48091B0008F7D80932A
:1007B000B000E32FF0E0E359FF4FE491F0E066234F
:1007C00029F4808190958923808308958081892BE5
:1007D00080830895482F50E0CA0181569F4FFC0145
:1007E0002491CA0185579F4FFC01949149585F4F4E
:1007F000FA013491332319F420E030E035C022238C
:1008000031F1233021F4809180008F7705C02430AE
:1008100031F4809180008F7D8093800018C021305A
:1008200019F484B58F7704C0223021F484B58F7D0C
:1008300084BD0DC0263021F48091B0008F7705C0B3
:10084000273029F48091B0008F7D8093B000E32F92
:10085000F0E0EE58FF4FE491F0E0808120E030E0DE
:10086000892311F021E030E0C9010895EF92FF9251
:100870000F931F937B018C0122E030E040E050E0B9
:100880000E942205205C3D4B404F5F4FCA01B901D9
:10089000A80197010E942205C901DA010197A10967
:1008A000B109292F3A2F4B2F552747FD5A9501960D
:1008B000A11DB11D2093C50081508093C400E1ECBF
:1008C000F0E0808180618083808188608083808186
:1008D000806880831F910F91FF90EF900895982F6B
:1008E0008091C00085FFFCCF9093C6000895809151
:1008F00034019091350180589F4F209136013091FD
:100900003701821B930B60E870E00E94ED040895AC
:100910004091360150913701809134019091350119
:100920008417950719F42FEF3FEF0FC0FA01E85C29
:10093000FE4F2081CA01019660E870E00E94ED043C
:10094000909337018093360130E0C901089580917A
:1009500036019091370190933501809334010895C9
:100960001F920F920FB60F9211242F933F934F9324
:100970005F936F937F938F939F93AF93BF93EF9307
:10098000FF934091C600E0913401F0913501CF0111
:10099000019660E870E00E94ED049C0180913601B0
:1009A000909137012817390739F0E85CFE4F4083F2
:1009B0003093350120933401FF91EF91BF91AF91B6
:1009C0009F918F917F916F915F914F913F912F9167
:1009D0000F900FBE0F901F90189597FB092E0726BA
:1009E0000AD077FD04D049D006D000201AF47095C3
:1009F00061957F4F0895F6F7909581959F4F0895E3
:100A0000A1E21A2EAA1BBB1BFD010DC0AA1FBB1F12
:100A1000EE1FFF1FA217B307E407F50720F0A21B84
:100A2000B30BE40BF50B661F771F881F991F1A94F1
:100A300069F760957095809590959B01AC01BD011B
:100A4000CF01089597FB092E05260ED057FD04D03F
:100A5000D7DF0AD0001C38F4509540953095219589
:100A60003F4F4F4F5F4F0895F6F7909580957095E3
:100A700061957F4F8F4F9F4F0895AA1BBB1B51E17C
:100A800007C0AA1FBB1FA617B70710F0A61BB70BFE
:100A9000881F991F5A95A9F780959095BC01CD01A3
:100AA0000895EE0FFF1F0590F491E02D0994F8943E
:020AB000FFCF76
:100AB20053706565643A20005374617274696E679D
:100AC20020737465707065722065786572636973EE
:0A0AD20065722E0000000000030111
:00000001FF
