:100000000C945C000C9484000C9484000C94840088
:100010000C9484000C9484000C9484000C94840050
:100020000C9484000C9484000C9484000C94840040
:100030000C9484000C9484000C9484000C94840030
:100040000C9423010C9484000C94E8060C94840016
:100050000C9484000C9484000C9484000C94840010
:100060000C9484000C948400000024272A000025AE
:10007000282B000023262904040404040404040299
:100080000202020202030303030303010204081035
:100090002040800102040810200102040810200002
:1000A0000000070002010000030406000000000039
:1000B000000000008E00B50211241FBECFEFD4E077
:1000C000DEBFCDBF11E0A0E0B1E0E2E2FFE002C0A0
:1000D00005900D92A830B107D9F711E0A8E0B1E082
:1000E00001C01D92AE39B107E1F710E0C8EBD0E0D6
:1000F00004C02297FE010E948B07C43BD107C9F7B9
:100100000E941C010C948F070C9400008091000148
:1001100090910101089588E091E0089547E066E03C
:1001200088E091E00E94D6020895AB01BC0188E10D
:1001300091E00E94E1050895AB01BC0188E191E0E6
:100140000E942B060895BC0188E191E00E943E06C2
:100150000895682F88E191E00E941E050895BC0172
:1001600088E191E00E942E050895AB01BC0188E171
:1001700091E00E9404060895BC0188E191E00E948C
:1001800036060895BC0188E191E00E94EF040895CD
:10019000682F88E191E00E94E704089588E191E0EA
:1001A0000E94C002089588E191E00E94C302089570
:1001B00088E191E00E94C60220E030E0882311F03F
:1001C00021E030E0C901089560E086E00E9400026D
:1001D00061E08DE00E94000261E087E00E94000281
:1001E00040E855E260E070E088E091E00E94700431
:1001F00040E855E260E070E088E191E00E94C902C9
:1002000008950E941F0408950E94270408950E94E3
:10021000520408950E94650408950E948F04089571
:1002200061E0809100010E941E0288E091E00E943E
:100230008F040E94BC0008950E94C6010E94E40041
:100240000E941001FDCF1F920F920FB60F92112442
:100250002F938F939F93AF93BF93809110019091B1
:100260001101A0911201B09113018050904CAF4F39
:10027000BF4F8093100190931101A0931201B0938E
:10028000130127C08091100190911101A0911201DA
:10029000B091130180589E43A040B040809310015C
:1002A00090931101A0931201B09313018091140156
:1002B00090911501A0911601B09117010196A11D11
:1002C000B11D8093140190931501A0931601B09372
:1002D00017018091100190911101A0911201B0912C
:1002E000130181589E43A040B04060F6BF91AF918A
:1002F0009F918F912F910F900FBE0F901F90189587
:100300008FB7F89420911401309115014091160196
:10031000509117018FBFB901CA010895EF92FF9262
:100320000F931F937B018C018FB7F89440911401B8
:100330005091150160911601709117018FBF2FB771
:10034000F8948091140190911501A0911601B0913B
:1003500017012FBF841B950BA60BB70B8E159F059E
:10036000A007B10760F31F910F91FF90EF900895E0
:10037000019759F0FC01EE0FFF1FEE0FFF1F3297A0
:100380008FB7F8943197F1F78FBF0895789484B5BB
:10039000826084BD84B5816084BD85B5826085BD81
:1003A00085B5816085BDEEE6F0E080818160808367
:1003B000E1E8F0E0808182608083808181608083D9
:1003C000E0E8F0E0808181608083E1EBF0E0808113
:1003D00084608083E0EBF0E0808181608083EAE7E5
:1003E000F0E080818460808380818260808380816E
:1003F000816080838081806880831092C10008952D
:10040000282F30E0C90185579F4FFC01949129584E
:100410003F4FF9018491882381F0E82FF0E0E859FB
:10042000FF4FE491F0E0662329F4808190958923C1
:10043000808308958081892B80830895482F50E020
:10044000CA0181569F4FFC012491CA0185579F4FD5
:10045000FC01949149585F4FFA0134913323C1F163
:10046000222331F1233021F4809180008F7705C061
:10047000243031F4809180008F7D8093800018C0FB
:10048000213019F484B58F7704C0223021F484B56B
:100490008F7D84BD0DC0263021F48091B0008F7710
:1004A00005C0273029F48091B0008F7D8093B00083
:1004B000E32FF0E0E359FF4FE491F0E0662329F4E5
:1004C000808190958923808308958081892B808302
:1004D0000895482F50E0CA0181569F4FFC01249196
:1004E000CA0185579F4FFC01949149585F4FFA010B
:1004F0003491332319F420E030E035C0222331F168
:10050000233021F4809180008F7705C0243031F4AE
:10051000809180008F7D8093800018C0213019F475
:1005200084B58F7704C0223021F484B58F7D84BDDB
:100530000DC0263021F48091B0008F7705C02730A0
:1005400029F48091B0008F7D8093B000E32FF0E01C
:10055000EE58FF4FE491F0E0808120E030E0892305
:1005600011F021E030E0C901089586E091E0909318
:100570001901809318010895862F0E94A7060895F7
:100580000E94DF0608950E94C00608950E94AF06EB
:100590000895CB01BA010E946E060895FC016083A4
:1005A000418312821382148215820895FC016083B4
:1005B000418312821382148215820895AF92BF92F2
:1005C000DF92EF92FF920F931F93CF93DF93EC0193
:1005D000B62E8A819B81AC81BD810097A105B105B2
:1005E00069F1EE80FF808DEF9FEFE80EF91E60E06D
:1005F00089810E941E02C7010E94B801DD24D394A4
:1006000008E010E0AB2CBB248D2D90E08A219B21CB
:10061000892B11F061E001C060E089810E941E0217
:10062000C7010E94B801DD0C0150104069F761E07C
:1006300089810E941E02C7010E94B801DF91CF91FB
:100640001F910F91FF90EF90DF90BF90AF900895B2
:100650000E94DE0208952F923F924F925F926F9216
:100660007F928F929F92AF92BF92CF92DF92EF9242
:10067000FF920F931F93DF93CF93CDB7DEB7A09771
:100680000FB6F894DEBF0FBECDBF1C016A017B011F
:10069000411551056105710521F460E30E94DE02F8
:1006A0004FC0882499245401422E5524662477246F
:1006B00001E010E00C0F1D1F080D191DC701B60148
:1006C000A30192010E943807F80160830894811CFD
:1006D000911CA11CB11CC701B601A30192010E948B
:1006E0003807C901DA016C017D01C114D104E104AC
:1006F000F104F1F681E0E82EF12CEC0EFD1EE80C81
:10070000F91C3E010894611C711CD501C4010197BC
:10071000A109B1096C01C818D9080FC0F601EE0D86
:10072000FF1D60816A3010F4605D01C0695CC10129
:100730000E94DE020894E108F1086E147F0471F74C
:10074000A0960FB6F894DEBF0FBECDBFCF91DF915C
:100750001F910F91FF90EF90DF90CF90BF90AF90DF
:100760009F908F907F906F905F904F903F902F90D1
:1007700008952AE00E942B030895AB0160E070E029
:100780000E94B90308950F931F938C016DE00E949E
:10079000DE026AE0C8010E94DE021F910F910895F7
:1007A0000F931F938C010E94B903C8010E94C303D9
:1007B0001F910F9108950F931F938C010E94DE02E9
:1007C000C8010E94C3031F910F9108950F931F93B7
:1007D0008C010E94DE02C8010E94C3031F910F9189
:1007E0000895EF92FF920F931F93CF93DF93EC0145
:1007F0007A018B0177FF0BC06DE20E94DE0210953B
:100800000095F094E094E11CF11C011D111D2AE0FB
:10081000B801A701CE010E942B03DF91CF911F9158
:100820000F91FF90EF9008950F931F938C010E94FA
:10083000F103C8010E94C3031F910F910895AB01FA
:10084000662757FD6095762F0E94F10308950F9358
:100850001F938C01AB01662757FD6095762F0E9490
:10086000F103C8010E94C3031F910F910895211540
:10087000310521F4642F0E94DE0208952A303105EB
:1008800019F40E94F10308950E942B0308950F9319
:100890001F938C010E943704C8010E94C3031F915B
:1008A0000F9108950F931F93CF93DF938C01EB016A
:1008B00004C02196C8010E94DE0268816623C9F740
:1008C000DF91CF911F910F9108950F931F938C018A
:1008D0000E945204C8010E94C3031F910F91089502
:1008E0000F931F938C019A01AB01FC012283338388
:1008F0004483558360E472E48FE090E00E945A07DD
:10090000F8013783268361E081810E941E02F8018D
:10091000868197810E94B8011F910F910895CF920F
:10092000DF92EF92FF920F931F93CF93DF937C019F
:10093000FC01C681D781F70180810E946902892B61
:10094000D1F7F70180810E946902892B19F00FEF1E
:100950001FEF2BC09DEFC92E9FEFD92ECC0EDD1EB1
:10096000C60162E070E00E942507CB0103970E9458
:10097000B80100E010E0C0E0D0E0C6010E94B8017C
:10098000F70180810E9469020C2E02C0880F991F16
:100990000A94E2F7082B192B2196C830D10569F784
:1009A000F701868197810E94B801C801DF91CF913C
:1009B0001F910F91FF90EF90DF90CF900895DC0191
:1009C000ED91FC910190F081E02D09950895DC01F5
:1009D000ED91FC910190F081E02D099508950F9320
:1009E0001F93CF93DF938C01EB0109C02196D801AF
:1009F000ED91FC910190F081E02DC801099568818D
:100A00006623A1F7DF91CF911F910F9108950F9366
:100A10001F938C01DC01ED91FC910190F081E02DA0
:100A20006DE00995D801ED91FC910190F081E02DE8
:100A30006AE0C80109951F910F9108950F931F93C4
:100A40008C01DC01ED91FC910190F081E02D099584
:100A5000C8010E9407051F910F9108950F931F93DE
:100A60008C010E94EF04C8010E9407051F910F919D
:100A700008950F931F938C01DC01ED91FC9101907F
:100A8000F081E02D0995C8010E9407051F910F9183
:100A900008952F923F924F925F926F927F928F9222
:100AA0009F92AF92BF92CF92DF92EF92FF920F93FD
:100AB0001F93DF93CF93CDB7DEB7A0970FB6F8940F
:100AC000DEBF0FBECDBF1C016A017B014115510580
:100AD0006105710549F4DC01ED91FC910190F08113
:100AE000E02D60E3099554C0882499245401422ED6
:100AF00055246624772401E010E00C0F1D1F080D1B
:100B0000191DC701B601A30192010E943807F8011F
:100B100060830894811C911CA11CB11CC701B60103
:100B2000A30192010E943807C901DA016C017D011D
:100B3000C114D104E104F104F1F681E0E82EF12CB6
:100B4000EC0EFD1EE80CF91C3E010894611C711CA2
:100B5000D501C4010197A109B1096C01C818D908D0
:100B600014C0F601EE0DFF1D60816A3010F4605D67
:100B700001C0695CD101ED91FC910190F081E02D03
:100B8000C10109950894E108F1086E147F0449F742
:100B9000A0960FB6F894DEBF0FBECDBFCF91DF9108
:100BA0001F910F91FF90EF90DF90CF90BF90AF908B
:100BB0009F908F907F906F905F904F903F902F907D
:100BC00008952AE00E94490508950F931F938C0110
:100BD0000E94E105C8010E9407051F910F91089529
:100BE000AB0160E070E00E94E10508950F931F9350
:100BF0008C01AB0160E070E00E94E105C8010E9439
:100C000007051F910F910895EF92FF920F931F9385
:100C1000CF93DF93EC017A018B0177FF0FC0E8815E
:100C2000F9810190F081E02D6DE209951095009514
:100C3000F094E094E11CF11C011D111D2AE0B801A3
:100C4000A701CE010E944905DF91CF911F910F911D
:100C5000FF90EF9008950F931F938C010E9404065C
:100C6000C8010E9407051F910F910895AB016627E7
:100C700057FD6095762F0E94040608950F931F93E9
:100C80008C01AB01662757FD6095762F0E94040604
:100C9000C8010E9407051F910F910895DC012115DD
:100CA000310541F4ED91FC910190F081E02D642F2C
:100CB000099508952A30310519F40E940406089513
:100CC0000E94490508950F931F938C010E944E06C0
:100CD000C8010E9407051F910F910895EF92FF929E
:100CE0000F931F937B018C0122E030E040E050E045
:100CF0000E945A07205C3D4B404F5F4FCA01B9012B
:100D0000A80197010E945A07C901DA010197A109B8
:100D1000B109292F3A2F4B2F552747FD5A95019698
:100D2000A11DB11D2093C50081508093C400E1EC4A
:100D3000F0E0808180618083808188608083808111
:100D4000806880831F910F91FF90EF900895982FF6
:100D50008091C00085FFFCCF9093C60008958091DC
:100D60001A0190911B0180589F4F20911C013091D6
:100D70001D01821B930B60E870E00E942507089517
:100D800040911C0150911D0180911A0190911B010D
:100D90008417950719F42FEF3FEF0FC0FA01E25EB9
:100DA000FE4F2081CA01019660E870E00E9425078D
:100DB00090931D0180931C0130E0C901089580913A
:100DC0001C0190911D0190931B0180931A010895BD
:100DD0001F920F920FB60F9211242F933F934F93B0
:100DE0005F936F937F938F939F93AF93BF93EF9393
:100DF000FF934091C600E0911A01F0911B01CF01D1
:100E0000019660E870E00E9425079C0180911C011A
:100E100090911D012817390739F0E25EFE4F40839B
:100E200030931B0120931A01FF91EF91BF91AF9175
:100E30009F918F917F916F915F914F913F912F91F2
:100E40000F900FBE0F901F90189597FB092E072645
:100E50000AD077FD04D049D006D000201AF470954E
:100E600061957F4F0895F6F7909581959F4F08956E
:100E7000A1E21A2EAA1BBB1BFD010DC0AA1FBB1F9E
:100E8000EE1FFF1FA217B307E407F50720F0A21B10
:100E9000B30BE40BF50B661F771F881F991F1A947D
:100EA00069F760957095809590959B01AC01BD01A7
:100EB000CF01089597FB092E05260ED057FD04D0CB
:100EC000D7DF0AD0001C38F4509540953095219515
:100ED0003F4F4F4F5F4F0895F6F79095809570956F
:100EE00061957F4F8F4F9F4F0895AA1BBB1B51E108
:100EF00007C0AA1FBB1FA617B70710F0A61BB70B8A
:100F0000881F991F5A95A9F780959095BC01CD012E
:100F10000895EE0FFF1F0590F491E02D0994F894C9
:020F2000FFCF01
:080F22000D0000000000BC02FC
:00000001FF
